:100000000C942A000C9434000C9434000C943400AA
:100010000C9434000C9434000C9434000C94340090
:100020000C9434000C9434000C9434000C94340080
:100030000C9434000C9434000C9434000C94340070
:100040000C9434000C9434000C9434000C94340060
:100050000C94340011241FBECFE5D8E0DEBFCDBF25
:100060000E9427080C94950B0C940000CF93DF930B
:10007000CDB7DEB787E390E0FC01208187E390E015
:10008000206BFC0120838DE290E023E5FC012083BE
:100090008EE290E0FC0110820000DF91CF91089584
:1000A000CF93DF93CDB7DEB787E390E0FC012081EB
:1000B00087E390E02F7BFC0120838DE290E023E436
:1000C000FC0120838EE290E0FC0110820000DF91B1
:1000D000CF910895CF93DF930F92CDB7DEB7898389
:1000E0008FE290E02981FC01208300008EE290E005
:1000F000FC0180818823D1F3000000000F90DF9184
:10010000CF910895CF93DF93CDB7DEB700008EE295
:1001100090E0FC0180818823D1F38FE290E0FC0124
:100120008081DF91CF910895CF93DF93CDB7DEB774
:10013000C958D1090FB6F894DEBF0FBECDBF89AF45
:100140008BE390E029AD207FDC012C9388E390E0E5
:10015000FC01208188E390E02D7FDC012C9388E373
:1001600090E0FC01208188E390E02B7FDC012C9360
:1001700088E390E0FC01208188E390E02860DC01C6
:100180002C9380E090E0A0E8BFE38BA79CA7ADA7ED
:10019000BEA720E030E04AEF54E46BA57CA58DA516
:1001A0009EA50E94000B2E966CAF7DAF8EAF9FAFC9
:1001B0002E972E968CAD9DADAEADBFAD2E978FA771
:1001C00098ABA9ABBAAB20E030E040E85FE36FA5A5
:1001D00078A989A99AA90E947A0A88232CF481E037
:1001E00090E09CAB8BAB65C020E03FEF4FE757E45E
:1001F0006FA578A989A99AA90E94FB0A18160CF084
:1002000046C020E030E040E251E46BA57CA58DA51E
:100210009EA50E94000B62966CAF7DAF8EAF9FAF24
:10022000629762968CAD9DADAEADBFAD62972A96DA
:100230008CAF9DAFAEAFBFAF2A972A966CAD7DADA8
:100240008EAD9FAD2A970E947F0A66966CAF7DAFF8
:100250008EAF9FAF66976496AEADBFAD6497BCABF3
:10026000ABAB10C088EC90E09EAB8DAB8DA99EA986
:100270000197F1F79EAB8DAB00008BA99CA901976C
:100280009CAB8BAB8BA99CA9892B61F71DC06FA57B
:1002900078A989A99AA90E947F0A6A966CAF7DAF56
:1002A0008EAF9FAF6A976896EEADFFAD6897FCABD7
:1002B000EBAB8BA99CA998AF8FAB8FA998AD019799
:1002C000F1F798AF8FAB000088E390E0DC012C9150
:1002D00088E390E0277FFC01208380E090E0A8EC99
:1002E000B2E48D8F9E8FAF8FB8A320E030E04AEF4D
:1002F00054E46D8D7E8D8F8D98A10E94000B6E96BB
:100300006CAF7DAF8EAF9FAF6E976E968CAD9DAD8F
:10031000AEADBFAD6E9789A39AA3ABA3BCA320E0FB
:1003200030E040E85FE369A17AA18BA19CA10E9423
:100330007A0A88232CF481E090E09EA38DA365C007
:1003400020E03FEF4FE757E469A17AA18BA19CA180
:100350000E94FB0A18160CF046C020E030E040E294
:1003600051E46D8D7E8D8F8D98A10E94000BA29619
:100370006CAF7DAF8EAF9FAFA297A2968CAD9DADB7
:10038000AEADBFADA29726968CAF9DAFAEAFBFAF5F
:10039000269726966CAD7DAD8EAD9FAD26970E94BB
:1003A0007F0AA6966CAF7DAF8EAF9FAFA697A4963F
:1003B000AEADBFADA497BEA3ADA310C088EC90E0D6
:1003C00098A78FA38FA198A50197F1F798A78FA35E
:1003D00000008DA19EA101979EA38DA38DA19EA13A
:1003E000892B61F71DC069A17AA18BA19CA10E94F4
:1003F0007F0AAA966CAF7DAF8EAF9FAFAA97A896E3
:10040000EEADFFADA897FEA3EDA38DA19EA19AA787
:1004100089A789A59AA50197F1F79AA789A700004E
:100420008BE390E029AD2295207FDC012C9388E3BB
:1004300090E0FC01208188E390E02860DC012C93AF
:1004400080E090E0A0E8BFE38F87988BA98BBA8B00
:1004500020E030E04AEF54E46F85788989899A89F1
:100460000E94000BAE966CAF7DAF8EAF9FAFAE9784
:10047000AE968CAD9DADAEADBFADAE978B8B9C8B6C
:10048000AD8BBE8B20E030E040E85FE36B897C8978
:100490008D899E890E947A0A88232CF481E090E05D
:1004A000988F8F8B65C020E03FEF4FE757E46B8953
:1004B0007C898D899E890E94FB0A18160CF046C023
:1004C00020E030E040E251E46F85788989899A899B
:1004D0000E94000BE2966CAF7DAF8EAF9FAFE297AC
:1004E000E2968CAD9DADAEADBFADE29722968CAFDE
:1004F0009DAFAEAFBFAF229722966CAD7DAD8EADF6
:100500009FAD22970E947F0AE6966CAF7DAF8EAFBB
:100510009FAFE697E496AEADBFADE497B88FAF8BD3
:1005200010C088EC90E09A8F898F898D9A8D019701
:10053000F1F79A8F898F00008F89988D0197988F96
:100540008F8B8F89988D892B61F71DC06B897C8972
:100550008D899E890E947F0AEA966CAF7DAF8EAF2F
:100560009FAFEA97E896EEADFFADE897F88FEF8B77
:100570008F89988D9C8F8B8F8B8D9C8D0197F1F738
:100580009C8F8B8F000088E390E0DC012C9188E346
:1005900090E0277FFC01208380E090E0A8ECB2E4AB
:1005A00089839A83AB83BC8320E030E04AEF54E434
:1005B00069817A818B819C810E94000BEE966CAFE1
:1005C0007DAF8EAF9FAFEE97EE968CAD9DADAEAD8D
:1005D000BFADEE978D839E83AF83B88720E030E078
:1005E00040E85FE36D817E818F8198850E947A0A61
:1005F00088232CF481E090E09A8789876DC020E001
:100600003FEF4FE757E46D817E818F8198850E948F
:10061000FB0A18160CF04AC020E030E040E251E43A
:1006200069817A818B819C810E94000BC258DF4FC7
:10063000688379838A839B83CE57D040C258DF4F2B
:1006400088819981AA81BB81CE57D0408AAF9BAF68
:10065000ACAFBDAF6AAD7BAD8CAD9DAD0E947F0AE6
:10066000CE57DF4F688379838A839B83C258D040FB
:10067000CE57DF4FA881B981C258D040BA87A98729
:1006800010C088EC90E09C878B878B859C850197B8
:10069000F1F79C878B87000089859A8501979A8757
:1006A000898789859A85892B61F721C06D817E8133
:1006B0008F8198850E947F0ACA57DF4F68837983AC
:1006C0008A839B83C658D040CA57DF4FE881F9819F
:1006D000C658D040FA87E98789859A859E878D8795
:1006E0008D859E850197F1F79E878D87000000001C
:1006F000C757DF4F0FB6F894DEBF0FBECDBFDF91F7
:10070000CF910895CF93DF93CDB7DEB7C756D10908
:100710000FB6F894DEBF0FBECDBF8BA78BE390E082
:100720002BA5207FDC012C9388E390E0FC01208145
:1007300088E390E02260DC012C9388E390E0FC01E8
:10074000208188E390E02B7FDC012C9388E390E00C
:10075000FC01208188E390E02860DC012C9380E09C
:1007600090E0A0E8BFE38D8F9E8FAF8FB8A320E00D
:1007700030E04AEF54E46D8D7E8D8F8D98A10E94FC
:10078000000B68AF79AF8AAF9BAF88AD99ADAAADCA
:10079000BBAD89A39AA3ABA3BCA320E030E040E8A3
:1007A0005FE369A17AA18BA19CA10E947A0A8823A8
:1007B0002CF481E090E09EA38DA35DC020E03FEF8C
:1007C0004FE757E469A17AA18BA19CA10E94FB0A83
:1007D00018160CF03EC020E030E040E251E46D8D90
:1007E0007E8D8F8D98A10E94000B6CAF7DAF8EAF78
:1007F0009FAF8CAD9DADAEADBFAD8CAB9DABAEAB89
:10080000BFAB6CA97DA98EA99FA90E947F0A2496DF
:100810006CAF7DAF8EAF9FAF24972296AEADBFADCC
:100820002297BEA3ADA310C088EC90E098A78FA339
:100830008FA198A50197F1F798A78FA300008DA12C
:100840009EA101979EA38DA38DA19EA1892B61F7E7
:100850001DC069A17AA18BA19CA10E947F0A289644
:100860006CAF7DAF8EAF9FAF28972696EEADFFADF4
:100870002697FEA3EDA38DA19EA19AA789A789A57E
:100880009AA50197F1F79AA789A7000088E390E05D
:10089000DC012C9188E390E0277FFC0120838BE32F
:1008A00090E02BA52295207FDC012C9388E390E03B
:1008B000FC01208188E390E02860DC012C9380E03B
:1008C00090E0A0E8BFE38F87988BA98BBA8B20E0DC
:1008D00030E04AEF54E46F85788989899A890E94CB
:1008E000000B2C966CAF7DAF8EAF9FAF2C972C96E4
:1008F0008CAD9DADAEADBFAD2C978B8B9C8BAD8B76
:10090000BE8B20E030E040E85FE36B897C898D8915
:100910009E890E947A0A88232CF481E090E0988FC7
:100920008F8B61C020E03FEF4FE757E46B897C89F4
:100930008D899E890E94FB0A18160CF042C020E0A7
:1009400030E040E251E46F85788989899A890E9474
:10095000000B60966CAF7DAF8EAF9FAF60976096D7
:100960008CAD9DADAEADBFAD609788AB99ABAAAB7A
:10097000BBAB68A979A98AA99BA90E947F0A649642
:100980006CAF7DAF8EAF9FAF64976296AEADBFADDB
:100990006297B88FAF8B10C088EC90E09A8F898FE8
:1009A000898D9A8D0197F1F79A8F898F00008F8931
:1009B000988D0197988F8F8B8F89988D892B61F7F0
:1009C0001DC06B897C898D899E890E947F0A6896EB
:1009D0006CAF7DAF8EAF9FAF68976696EEADFFAD03
:1009E0006697F88FEF8B8F89988D9C8F8B8F8B8D6F
:1009F0009C8D0197F1F79C8F8B8F000088E390E02E
:100A0000DC012C9188E390E0277FFC01208380E0CB
:100A100090E0A8ECB2E489839A83AB83BC8320E0A6
:100A200030E04AEF54E469817A818B819C810E9495
:100A3000000B6C966CAF7DAF8EAF9FAF6C976C96D2
:100A40008CAD9DADAEADBFAD6C978D839E83AF83F6
:100A5000B88720E030E040E85FE36D817E818F81E0
:100A600098850E947A0A88232CF481E090E09A8786
:100A7000898761C020E03FEF4FE757E46D817E81B9
:100A80008F8198850E94FB0A18160CF042C020E066
:100A900030E040E251E469817A818B819C810E943F
:100AA000000BA0966CAF7DAF8EAF9FAFA097A096C6
:100AB0008CAD9DADAEADBFADA0978CA79DA7AEA7E9
:100AC000BFA76CA57DA58EA59FA50E947F0AA496B1
:100AD0006CAF7DAF8EAF9FAFA497A296AEADBFAD0A
:100AE000A297BA87A98710C088EC90E09C878B8773
:100AF0008B859C850197F1F79C878B870000898502
:100B00009A8501979A87898789859A85892B61F7C4
:100B10001DC06D817E818F8198850E947F0AA89675
:100B20006CAF7DAF8EAF9FAFA897A696EEADFFAD31
:100B3000A697FA87E98789859A859E878D878D850F
:100B40009E850197F1F79E878D8700000000C959A7
:100B5000DF4F0FB6F894DEBF0FBECDBFDF91CF9150
:100B60000895CF93DF93CDB7DEB7A2970FB6F89471
:100B7000DEBF0FBECDBF8AE390E02FEFDC012C93E8
:100B800087E390E02FEFFC01208388E390E0DC0115
:100B90002C9188E390E0277FFC01208383E30E946F
:100BA000940082E30E94940088E20E9494008EE008
:100BB0000E94940081E00E94940080E090E0A8E40C
:100BC000B3E489839A83AB83BC8320E030E04AEFAF
:100BD00054E469817A818B819C810E94000B6B8B2C
:100BE0007C8B8D8B9E8B8B899C89AD89BE898D83F7
:100BF0009E83AF83B88720E030E040E85FE36D81FB
:100C00007E818F8198850E947A0A88232CF481E066
:100C100090E09A87898754C020E03FEF4FE757E480
:100C20006D817E818F8198850E94FB0A1816D4F50C
:100C300020E030E040E251E469817A818B819C813F
:100C40000E94000B6F8B788F898F9A8F8F89988D78
:100C5000A98DBA8D8F87988BA98BBA8B6F85788970
:100C600089899A890E947F0A6B8F7C8F8D8F9E8FD6
:100C7000AB8DBC8DBA87A98710C088EC90E09C87AB
:100C80008B878B859C850197F1F79C878B8700006C
:100C900089859A8501979A87898789859A85892B7D
:100CA00061F719C06D817E818F8198850E947F0ACE
:100CB0006F8F78A389A39AA3EF8DF8A1FA87E987AC
:100CC00089859A859E878D878D859E850197F1F709
:100CD0009E878D87000086E00E9494000000A29607
:100CE0000FB6F894DEBF0FBECDBFDF91CF91089550
:100CF000CF93DF93CDB7DEB7A5970FB6F894DEBFDD
:100D00000FBECDBF998B888B19829CC08981882F9B
:100D100090E028893989820F931FDC018C910E9411
:100D2000820389818F5F898380E090E0A8ECB2E440
:100D30008A839B83AC83BD8320E030E04AEF54E498
:100D40006A817B818C819D810E94000B6E8B7F8BE1
:100D5000888F998F8E899F89A88DB98D8E839F8367
:100D6000A887B98720E030E040E85FE36E817F81AB
:100D7000888599850E947A0A88232CF481E090E086
:100D80009B878A8754C020E03FEF4FE757E46E818E
:100D90007F81888599850E94FB0A1816D4F520E08A
:100DA00030E040E251E46A817B818C819D810E9428
:100DB000000B6A8F7B8F8C8F9D8F8A8D9B8DAC8D66
:100DC000BD8D8A8B9B8BAC8BBD8B6A897B898C8913
:100DD0009D890E947F0A6E8F7F8F88A399A3AE8D15
:100DE000BF8DBB87AA8710C088EC90E09D878C8759
:100DF0008C859D850197F1F79D878C8700008A85FA
:100E00009B8501979B878A878A859B85892B61F7BC
:100E100019C06E817F81888599850E947F0A6AA3A7
:100E20007BA38CA39DA3EAA1FBA1FB87EA878A850C
:100E30009B859F878E878E859F850197F1F79F877A
:100E40008E8700008981882F90E028893989820F58
:100E5000931FDC018C91882309F058CF000000001B
:100E6000A5960FB6F894DEBF0FBECDBFDF91CF9130
:100E70000895CF93DF93CDB7DEB7A3970FB6F8945D
:100E8000DEBF0FBECDBF8F878F850E94820380E0BB
:100E900090E0A8ECB2E489839A83AB83BC8320E022
:100EA00030E04AEF54E469817A818B819C810E9411
:100EB000000B6C8B7D8B8E8B9F8B8C899D89AE8973
:100EC000BF898D839E83AF83B88720E030E040E800
:100ED0005FE36D817E818F8198850E947A0A8823E5
:100EE0002CF481E090E09A87898754C020E03FEF9E
:100EF0004FE757E46D817E818F8198850E94FB0AC0
:100F00001816D4F520E030E040E251E469817A819E
:100F10008B819C810E94000B688F798F8A8F9B8FB9
:100F2000888D998DAA8DBB8D888B998BAA8BBB8B55
:100F3000688979898A899B890E947F0A6C8F7D8F55
:100F40008E8F9F8FAC8DBD8DBA87A98710C088EC1E
:100F500090E09C878B878B859C850197F1F79C8718
:100F60008B87000089859A8501979A87898789856B
:100F70009A85892B61F719C06D817E818F81988553
:100F80000E947F0A68A379A38AA39BA388A199A141
:100F90009A87898789859A859E878D878D859E8585
:100FA0000197F1F79E878D8700000000A3960FB68A
:100FB000F894DEBF0FBECDBFDF91CF910895CF93E0
:100FC000DF93CDB7DEB780E490E0FC01108289E2C8
:100FD00090E027E6FC0120838AE290E028E1FC0112
:100FE000208380E490E02EE8FC0120830000DF9164
:100FF000CF910895CF93DF930F92CDB7DEB789835A
:1010000000008BE290E0FC018081882F90E08072EC
:101010009927892BB1F38CE290E02981FC01208390
:1010200000000F90DF91CF910895CF93DF93CDB75C
:10103000DEB700008BE290E0FC0180818823D4F7CA
:101040008CE290E0FC018081DF91CF910895CF93F5
:10105000DF93CDB7DEB7C756D1090FB6F894DEBF20
:101060000FBECDBF0E9450000E94B10584E390E006
:10107000DC012C9184E390E02460FC01208381E377
:1010800090E0DC012C9181E390E02860FC0120835A
:101090000E94820089838981813309F0AAC085E397
:1010A00090E0DC012C9185E390E02460FC0120833A
:1010B00080E090E0AAE7B4E48A839B83AC83BD839D
:1010C00020E030E04AEF54E46A817B818C819D818D
:1010D0000E94000B68AF79AF8AAF9BAF88AD99AD26
:1010E000AAADBBAD8E839F83A887B98720E030E08F
:1010F00040E85FE36E817F81888599850E947A0A46
:1011000088232CF481E090E09B878A875DC020E0F3
:101110003FEF4FE757E46E817F81888599850E9474
:10112000FB0A18160CF03EC020E030E040E251E42B
:101130006A817B818C819D810E94000B6CAF7DAFA9
:101140008EAF9FAF8CAD9DADAEADBFAD8CA79DA753
:10115000AEA7BFA76CA57DA58EA59FA50E947F0AFF
:1011600024966CAF7DAF8EAF9FAF24972296AEAD25
:10117000BFAD2297BB87AA8710C088EC90E09D87FF
:101180008C878C859D850197F1F79D878C87000062
:101190008A859B8501979B878A878A859B85892B72
:1011A00061F71DC06E817F81888599850E947F0AC5
:1011B00028966CAF7DAF8EAF9FAF28972696EEAD89
:1011C000FFAD2697FB87EA878A859B859F878E8759
:1011D0008E859F850197F1F79F878E87000085E3B5
:1011E00090E0DC012C9185E390E02B7FFC012083D3
:1011F0007DC18981823309F0B2C082E390E0DC01D5
:101200002C9182E390E02860FC01208380E090E054
:10121000AAE7B4E4888B998BAA8BBB8B20E030E0E3
:101220004AEF54E4688979898A899B890E94000B76
:101230002C966CAF7DAF8EAF9FAF2C972C968CAD5C
:101240009DADAEADBFAD2C978C8B9D8BAE8BBF8B08
:1012500020E030E040E85FE36C897D898E899F89DA
:101260000E947A0A88232CF481E090E0998F888F7D
:1012700061C020E03FEF4FE757E46C897D898E899C
:101280009F890E94FB0A18160CF042C020E030E053
:1012900040E251E4688979898A899B890E94000B20
:1012A00060966CAF7DAF8EAF9FAF609760968CAD50
:1012B0009DADAEADBFAD609788AB99ABAAABBBABF4
:1012C00068A979A98AA99BA90E947F0A64966CAF34
:1012D0007DAF8EAF9FAF64976296AEADBFAD6297A4
:1012E000B98FA88F10C088EC90E09B8F8A8F8A8D71
:1012F0009B8D0197F1F79B8F8A8F0000888D998DC8
:101300000197998F888F888D998D892B61F71DC0E2
:101310006C897D898E899F890E947F0A68966CAF4F
:101320007DAF8EAF9FAF68976696EEADFFAD6697C7
:10133000F98FE88F888D998D9D8F8C8F8C8D9D8DE9
:101340000197F1F79D8F8C8F000082E390E0DC0124
:101350002C9182E390E0277FFC012083C7C0898124
:10136000833309F0C3C082E390E0DC012C9182E377
:1013700090E02860FC01208385E390E0DC012C9163
:1013800085E390E02460FC01208380E090E0AAE700
:10139000B4E48E8F9F8FA8A3B9A320E030E04AEF7A
:1013A00054E46E8D7F8D88A199A10E94000B6C96EC
:1013B0006CAF7DAF8EAF9FAF6C976C968CAD9DADD3
:1013C000AEADBFAD6C978AA39BA3ACA3BDA320E039
:1013D00030E040E85FE36AA17BA18CA19DA10E945F
:1013E0007A0A88232CF481E090E09FA38EA361C049
:1013F00020E03FEF4FE757E46AA17BA18CA19DA1BC
:101400000E94FB0A18160CF042C020E030E040E2D7
:1014100051E46E8D7F8D88A199A10E94000BA0964A
:101420006CAF7DAF8EAF9FAFA097A0968CAD9DADFA
:10143000AEADBFADA0978CAB9DABAEABBFAB6CA957
:101440007DA98EA99FA90E947F0AA4966CAF7DAF4B
:101450008EAF9FAFA497A296AEADBFADA297BFA32C
:10146000AEA310C088EC90E099A788A788A599A59D
:101470000197F1F799A788A700008EA19FA1019776
:101480009FA38EA38EA19FA1892B61F71DC06AA186
:101490007BA18CA19DA10E947F0AA8966CAF7DAF15
:1014A0008EAF9FAFA897A696EEADFFADA697FFA310
:1014B000EEA38EA19FA19BA78AA78AA59BA50197B2
:1014C000F1F79BA78AA7000085E390E0DC012C914F
:1014D00085E390E02B7FFC01208382E390E0DC0138
:1014E0002C9182E390E0277FFC01208389810E9478
:1014F0003907CECD0E94AE0A08F481E008950E941B
:10150000DA0A88F09F5798F0B92F9927B751B0F0B1
:10151000E1F0660F771F881F991F1AF0BA95C9F777
:1015200014C0B13091F00E94F40AB1E008950C9417
:10153000F40A672F782F8827B85F39F0B93FCCF3CA
:10154000869577956795B395D9F73EF490958095F4
:10155000709561957F4F8F4F9F4F0895990F0008A9
:10156000550FAA0BE0E8FEEF16161706E807F90775
:10157000C0F012161306E407F50798F0621B730B10
:10158000840B950B39F40A2661F0232B242B252B91
:1015900021F408950A2609F4A140A6958FEF811D34
:1015A000811D089557FD9058440F551F59F05F3F16
:1015B00071F04795880F97FB991F61F09F3F79F075
:1015C00087950895121613061406551FF2CF4695F7
:1015D000F1DF08C0161617061806991FF1CF869579
:1015E0007105610508940895E894BB27662777275D
:1015F000CB0197F908950E94AE0A08F48FEF089581
:101600000E94130B0C94840B0E94760B38F00E94FE
:101610007D0B20F0952311F00C946D0B0C94730B43
:1016200011240C94F50A0E94D20A70F3959FC1F31D
:10163000950F50E0551F629FF001729FBB27F00D80
:10164000B11D639FAA27F00DB11DAA1F649F6627D5
:10165000B00DA11D661F829F2227B00DA11D621F24
:10166000739FB00DA11D621F839FA00D611D221FDE
:10167000749F3327A00D611D231F849F600D211DC2
:10168000822F762F6A2F11249F5750409AF0F1F045
:1016900088234AF0EE0FFF1FBB1F661F771F881FAE
:1016A00091505040A9F79E3F510580F00C946D0B6E
:1016B0000C94F50A5F3FE4F3983ED4F38695779552
:1016C0006795B795F795E7959F5FC1F7FE2B880F54
:1016D000911D9695879597F9089597F99F6780E8EA
:1016E00070E060E008959FEF80EC089500240A9474
:1016F0001616170618060906089500240A941216ED
:101700001306140605060895092E0394000C11F41F
:10171000882352F0BB0F40F4BF2B11F460FF04C0CC
:0E1720006F5F7F4F8F4F9F4F0895F894FFCF5C
:00000001FF
